{
  "_format": "hh-sol-artifact-1",
  "contractName": "FileShare",
  "sourceName": "contracts/FileShare.sol",
  "abi": [
    {
      "anonymous": false,
      "inputs": [
        {
          "indexed": false,
          "internalType": "string",
          "name": "cid",
          "type": "string"
        },
        {
          "indexed": false,
          "internalType": "string",
          "name": "name",
          "type": "string"
        },
        {
          "indexed": false,
          "internalType": "address",
          "name": "uploader",
          "type": "address"
        }
      ],
      "name": "FileUploaded",
      "type": "event"
    },
    {
      "inputs": [
        {
          "internalType": "uint256",
          "name": "",
          "type": "uint256"
        }
      ],
      "name": "files",
      "outputs": [
        {
          "internalType": "string",
          "name": "cid",
          "type": "string"
        },
        {
          "internalType": "string",
          "name": "name",
          "type": "string"
        },
        {
          "internalType": "address",
          "name": "uploader",
          "type": "address"
        }
      ],
      "stateMutability": "view",
      "type": "function"
    },
    {
      "inputs": [],
      "name": "getAllFiles",
      "outputs": [
        {
          "components": [
            {
              "internalType": "string",
              "name": "cid",
              "type": "string"
            },
            {
              "internalType": "string",
              "name": "name",
              "type": "string"
            },
            {
              "internalType": "address",
              "name": "uploader",
              "type": "address"
            }
          ],
          "internalType": "struct FileShare.File[]",
          "name": "",
          "type": "tuple[]"
        }
      ],
      "stateMutability": "view",
      "type": "function"
    },
    {
      "inputs": [],
      "name": "getFileCount",
      "outputs": [
        {
          "internalType": "uint256",
          "name": "",
          "type": "uint256"
        }
      ],
      "stateMutability": "view",
      "type": "function"
    },
    {
      "inputs": [
        {
          "internalType": "string",
          "name": "_cid",
          "type": "string"
        },
        {
          "internalType": "string",
          "name": "_name",
          "type": "string"
        }
      ],
      "name": "uploadFile",
      "outputs": [],
      "stateMutability": "nonpayable",
      "type": "function"
    }
  ],
  "bytecode": "0x6080604052348015600f57600080fd5b50610d468061001f6000396000f3fe608060405234801561001057600080fd5b506004361061004c5760003560e01c8063996d50bf14610051578063bab50cc91461006d578063f4c714b41461008b578063ff24b5d5146100bd575b600080fd5b61006b60048036038101906100669190610694565b6100db565b005b6100756101eb565b6040516100829190610725565b60405180910390f35b6100a560048036038101906100a0919061076c565b6101f7565b6040516100b493929190610859565b60405180910390f35b6100c5610361565b6040516100d29190610a10565b60405180910390f35b600060405180606001604052808481526020018381526020013373ffffffffffffffffffffffffffffffffffffffff168152509080600181540180825580915050600190039060005260206000209060030201600090919091909150600082015181600001908161014c9190610c3e565b5060208201518160010190816101629190610c3e565b5060408201518160020160006101000a81548173ffffffffffffffffffffffffffffffffffffffff021916908373ffffffffffffffffffffffffffffffffffffffff16021790555050507f665e30a79237e64e85f7d6a64750fcffa992533d43bca672d982ff3d38ef697a8282336040516101df93929190610859565b60405180910390a15050565b60008080549050905090565b6000818154811061020757600080fd5b906000526020600020906003020160009150905080600001805461022a90610a61565b80601f016020809104026020016040519081016040528092919081815260200182805461025690610a61565b80156102a35780601f10610278576101008083540402835291602001916102a3565b820191906000526020600020905b81548152906001019060200180831161028657829003601f168201915b5050505050908060010180546102b890610a61565b80601f01602080910402602001604051908101604052809291908181526020018280546102e490610a61565b80156103315780601f1061030657610100808354040283529160200191610331565b820191906000526020600020905b81548152906001019060200180831161031457829003601f168201915b5050505050908060020160009054906101000a900473ffffffffffffffffffffffffffffffffffffffff16905083565b60606000805480602002602001604051908101604052809291908181526020016000905b8282101561053157838290600052602060002090600302016040518060600160405290816000820180546103b890610a61565b80601f01602080910402602001604051908101604052809291908181526020018280546103e490610a61565b80156104315780601f1061040657610100808354040283529160200191610431565b820191906000526020600020905b81548152906001019060200180831161041457829003601f168201915b5050505050815260200160018201805461044a90610a61565b80601f016020809104026020016040519081016040528092919081815260200182805461047690610a61565b80156104c35780601f10610498576101008083540402835291602001916104c3565b820191906000526020600020905b8154815290600101906020018083116104a657829003601f168201915b505050505081526020016002820160009054906101000a900473ffffffffffffffffffffffffffffffffffffffff1673ffffffffffffffffffffffffffffffffffffffff1673ffffffffffffffffffffffffffffffffffffffff168152505081526020019060010190610385565b50505050905090565b6000604051905090565b600080fd5b600080fd5b600080fd5b600080fd5b6000601f19601f8301169050919050565b7f4e487b7100000000000000000000000000000000000000000000000000000000600052604160045260246000fd5b6105a182610558565b810181811067ffffffffffffffff821117156105c0576105bf610569565b5b80604052505050565b60006105d361053a565b90506105df8282610598565b919050565b600067ffffffffffffffff8211156105ff576105fe610569565b5b61060882610558565b9050602081019050919050565b82818337600083830152505050565b6000610637610632846105e4565b6105c9565b90508281526020810184848401111561065357610652610553565b5b61065e848285610615565b509392505050565b600082601f83011261067b5761067a61054e565b5b813561068b848260208601610624565b91505092915050565b600080604083850312156106ab576106aa610544565b5b600083013567ffffffffffffffff8111156106c9576106c8610549565b5b6106d585828601610666565b925050602083013567ffffffffffffffff8111156106f6576106f5610549565b5b61070285828601610666565b9150509250929050565b6000819050919050565b61071f8161070c565b82525050565b600060208201905061073a6000830184610716565b92915050565b6107498161070c565b811461075457600080fd5b50565b60008135905061076681610740565b92915050565b60006020828403121561078257610781610544565b5b600061079084828501610757565b91505092915050565b600081519050919050565b600082825260208201905092915050565b60005b838110156107d35780820151818401526020810190506107b8565b60008484015250505050565b60006107ea82610799565b6107f481856107a4565b93506108048185602086016107b5565b61080d81610558565b840191505092915050565b600073ffffffffffffffffffffffffffffffffffffffff82169050919050565b600061084382610818565b9050919050565b61085381610838565b82525050565b6000606082019050818103600083015261087381866107df565b9050818103602083015261088781856107df565b9050610896604083018461084a565b949350505050565b600081519050919050565b600082825260208201905092915050565b6000819050602082019050919050565b600082825260208201905092915050565b60006108e682610799565b6108f081856108ca565b93506109008185602086016107b5565b61090981610558565b840191505092915050565b61091d81610838565b82525050565b6000606083016000830151848203600086015261094082826108db565b9150506020830151848203602086015261095a82826108db565b915050604083015161096f6040860182610914565b508091505092915050565b60006109868383610923565b905092915050565b6000602082019050919050565b60006109a68261089e565b6109b081856108a9565b9350836020820285016109c2856108ba565b8060005b858110156109fe57848403895281516109df858261097a565b94506109ea8361098e565b925060208a019950506001810190506109c6565b50829750879550505050505092915050565b60006020820190508181036000830152610a2a818461099b565b905092915050565b7f4e487b7100000000000000000000000000000000000000000000000000000000600052602260045260246000fd5b60006002820490506001821680610a7957607f821691505b602082108103610a8c57610a8b610a32565b5b50919050565b60008190508160005260206000209050919050565b60006020601f8301049050919050565b600082821b905092915050565b600060088302610af47fffffffffffffffffffffffffffffffffffffffffffffffffffffffffffffffff82610ab7565b610afe8683610ab7565b95508019841693508086168417925050509392505050565b6000819050919050565b6000610b3b610b36610b318461070c565b610b16565b61070c565b9050919050565b6000819050919050565b610b5583610b20565b610b69610b6182610b42565b848454610ac4565b825550505050565b600090565b610b7e610b71565b610b89818484610b4c565b505050565b5b81811015610bad57610ba2600082610b76565b600181019050610b8f565b5050565b601f821115610bf257610bc381610a92565b610bcc84610aa7565b81016020851015610bdb578190505b610bef610be785610aa7565b830182610b8e565b50505b505050565b600082821c905092915050565b6000610c1560001984600802610bf7565b1980831691505092915050565b6000610c2e8383610c04565b9150826002028217905092915050565b610c4782610799565b67ffffffffffffffff811115610c6057610c5f610569565b5b610c6a8254610a61565b610c75828285610bb1565b600060209050601f831160018114610ca85760008415610c96578287015190505b610ca08582610c22565b865550610d08565b601f198416610cb686610a92565b60005b82811015610cde57848901518255600182019150602085019450602081019050610cb9565b86831015610cfb5784890151610cf7601f891682610c04565b8355505b6001600288020188555050505b50505050505056fea26469706673582212207ee4f11e27c0fb4539aadf64f8ee85e47388bebf3f6044048ca74f26780cc13c64736f6c634300081c0033",
  "linkReferences": {},
  "deployedLinkReferences": {}
}