{
  "_format": "hh-sol-artifact-1",
  "contractName": "FileAccessControl",
  "sourceName": "contracts/FileAccessControl.sol",
  "abi": [
    {
      "anonymous": false,
      "inputs": [
        {
          "indexed": false,
          "internalType": "uint256",
          "name": "fileId",
          "type": "uint256"
        },
        {
          "indexed": false,
          "internalType": "address",
          "name": "buyer",
          "type": "address"
        }
      ],
      "name": "FilePurchased",
      "type": "event"
    },
    {
      "anonymous": false,
      "inputs": [
        {
          "indexed": false,
          "internalType": "uint256",
          "name": "fileId",
          "type": "uint256"
        },
        {
          "indexed": false,
          "internalType": "address",
          "name": "uploader",
          "type": "address"
        }
      ],
      "name": "FileUploaded",
      "type": "event"
    },
    {
      "inputs": [
        {
          "internalType": "uint256",
          "name": "fileId",
          "type": "uint256"
        }
      ],
      "name": "buyFile",
      "outputs": [],
      "stateMutability": "payable",
      "type": "function"
    },
    {
      "inputs": [
        {
          "internalType": "uint256",
          "name": "",
          "type": "uint256"
        },
        {
          "internalType": "uint256",
          "name": "",
          "type": "uint256"
        }
      ],
      "name": "buyers",
      "outputs": [
        {
          "internalType": "address",
          "name": "",
          "type": "address"
        }
      ],
      "stateMutability": "view",
      "type": "function"
    },
    {
      "inputs": [
        {
          "internalType": "uint256",
          "name": "",
          "type": "uint256"
        }
      ],
      "name": "files",
      "outputs": [
        {
          "internalType": "address",
          "name": "owner",
          "type": "address"
        },
        {
          "internalType": "string",
          "name": "name",
          "type": "string"
        },
        {
          "internalType": "string",
          "name": "cid",
          "type": "string"
        }
      ],
      "stateMutability": "view",
      "type": "function"
    },
    {
      "inputs": [
        {
          "internalType": "uint256",
          "name": "fileId",
          "type": "uint256"
        }
      ],
      "name": "getBuyers",
      "outputs": [
        {
          "internalType": "address[]",
          "name": "",
          "type": "address[]"
        }
      ],
      "stateMutability": "view",
      "type": "function"
    },
    {
      "inputs": [
        {
          "internalType": "uint256",
          "name": "fileId",
          "type": "uint256"
        }
      ],
      "name": "getFileCid",
      "outputs": [
        {
          "internalType": "string",
          "name": "",
          "type": "string"
        }
      ],
      "stateMutability": "view",
      "type": "function"
    },
    {
      "inputs": [
        {
          "internalType": "uint256",
          "name": "",
          "type": "uint256"
        },
        {
          "internalType": "address",
          "name": "",
          "type": "address"
        }
      ],
      "name": "hasPurchased",
      "outputs": [
        {
          "internalType": "bool",
          "name": "",
          "type": "bool"
        }
      ],
      "stateMutability": "view",
      "type": "function"
    },
    {
      "inputs": [
        {
          "internalType": "string",
          "name": "_name",
          "type": "string"
        },
        {
          "internalType": "string",
          "name": "_cid",
          "type": "string"
        }
      ],
      "name": "uploadFile",
      "outputs": [],
      "stateMutability": "nonpayable",
      "type": "function"
    }
  ],
  "bytecode": "0x6080604052348015600f57600080fd5b506114fe8061001f6000396000f3fe6080604052600436106100705760003560e01c8063996d50bf1161004e578063996d50bf1461010b578063dc9da2f814610134578063e783746914610171578063f4c714b4146101ae57610070565b806327e7875a146100755780634c619f89146100b25780637feafd20146100ce575b600080fd5b34801561008157600080fd5b5061009c60048036038101906100979190610a81565b6101ed565b6040516100a99190610b02565b60405180910390f35b6100cc60048036038101906100c79190610b1d565b61023b565b005b3480156100da57600080fd5b506100f560048036038101906100f09190610b1d565b61050f565b6040516101029190610c08565b60405180910390f35b34801561011757600080fd5b50610132600480360381019061012d9190610d70565b6105b0565b005b34801561014057600080fd5b5061015b60048036038101906101569190610e14565b6106cf565b6040516101689190610e6f565b60405180910390f35b34801561017d57600080fd5b5061019860048036038101906101939190610b1d565b6106fe565b6040516101a59190610f09565b60405180910390f35b3480156101ba57600080fd5b506101d560048036038101906101d09190610b1d565b6108cd565b6040516101e493929190610f2b565b60405180910390f35b6001602052816000526040600020818154811061020957600080fd5b906000526020600020016000915091509054906101000a900473ffffffffffffffffffffffffffffffffffffffff1681565b6000805490508110610282576040517f08c379a000000000000000000000000000000000000000000000000000000000815260040161027990610fbc565b60405180910390fd5b662386f26fc100003410156102cc576040517f08c379a00000000000000000000000000000000000000000000000000000000081526004016102c390611028565b60405180910390fd5b6002600082815260200190815260200160002060003373ffffffffffffffffffffffffffffffffffffffff1673ffffffffffffffffffffffffffffffffffffffff16815260200190815260200160002060009054906101000a900460ff161561036a576040517f08c379a000000000000000000000000000000000000000000000000000000000815260040161036190611094565b60405180910390fd5b60016002600083815260200190815260200160002060003373ffffffffffffffffffffffffffffffffffffffff1673ffffffffffffffffffffffffffffffffffffffff16815260200190815260200160002060006101000a81548160ff02191690831515021790555060016000828152602001908152602001600020339080600181540180825580915050600190039060005260206000200160009091909190916101000a81548173ffffffffffffffffffffffffffffffffffffffff021916908373ffffffffffffffffffffffffffffffffffffffff1602179055506000818154811061045b5761045a6110b4565b5b906000526020600020906003020160000160009054906101000a900473ffffffffffffffffffffffffffffffffffffffff1673ffffffffffffffffffffffffffffffffffffffff166108fc349081150290604051600060405180830381858888f193505050501580156104d2573d6000803e3d6000fd5b507f736793b586513d9aab09e0d0ac9e71cd430869ceeab3ee0b3a633aa26f0743af81336040516105049291906110f2565b60405180910390a150565b6060600160008381526020019081526020016000208054806020026020016040519081016040528092919081815260200182805480156105a457602002820191906000526020600020905b8160009054906101000a900473ffffffffffffffffffffffffffffffffffffffff1673ffffffffffffffffffffffffffffffffffffffff168152602001906001019080831161055a575b50505050509050919050565b600060405180606001604052803373ffffffffffffffffffffffffffffffffffffffff16815260200184815260200183815250908060018154018082558091505060019003906000526020600020906003020160009091909190915060008201518160000160006101000a81548173ffffffffffffffffffffffffffffffffffffffff021916908373ffffffffffffffffffffffffffffffffffffffff16021790555060208201518160010190816106689190611327565b50604082015181600201908161067e9190611327565b5050507fe5970d67e04f38f957dca69cdcde5da3e144946d6bdd2ddd2edcdcc43f0338ea60016000805490506106b49190611428565b336040516106c39291906110f2565b60405180910390a15050565b60026020528160005260406000206020528060005260406000206000915091509054906101000a900460ff1681565b60606002600083815260200190815260200160002060003373ffffffffffffffffffffffffffffffffffffffff1673ffffffffffffffffffffffffffffffffffffffff16815260200190815260200160002060009054906101000a900460ff16806107d9575060008281548110610778576107776110b4565b5b906000526020600020906003020160000160009054906101000a900473ffffffffffffffffffffffffffffffffffffffff1673ffffffffffffffffffffffffffffffffffffffff163373ffffffffffffffffffffffffffffffffffffffff16145b610818576040517f08c379a000000000000000000000000000000000000000000000000000000000815260040161080f906114a8565b60405180910390fd5b6000828154811061082c5761082b6110b4565b5b906000526020600020906003020160020180546108489061114a565b80601f01602080910402602001604051908101604052809291908181526020018280546108749061114a565b80156108c15780601f10610896576101008083540402835291602001916108c1565b820191906000526020600020905b8154815290600101906020018083116108a457829003601f168201915b50505050509050919050565b600081815481106108dd57600080fd5b90600052602060002090600302016000915090508060000160009054906101000a900473ffffffffffffffffffffffffffffffffffffffff16908060010180546109269061114a565b80601f01602080910402602001604051908101604052809291908181526020018280546109529061114a565b801561099f5780601f106109745761010080835404028352916020019161099f565b820191906000526020600020905b81548152906001019060200180831161098257829003601f168201915b5050505050908060020180546109b49061114a565b80601f01602080910402602001604051908101604052809291908181526020018280546109e09061114a565b8015610a2d5780601f10610a0257610100808354040283529160200191610a2d565b820191906000526020600020905b815481529060010190602001808311610a1057829003601f168201915b5050505050905083565b6000604051905090565b600080fd5b600080fd5b6000819050919050565b610a5e81610a4b565b8114610a6957600080fd5b50565b600081359050610a7b81610a55565b92915050565b60008060408385031215610a9857610a97610a41565b5b6000610aa685828601610a6c565b9250506020610ab785828601610a6c565b9150509250929050565b600073ffffffffffffffffffffffffffffffffffffffff82169050919050565b6000610aec82610ac1565b9050919050565b610afc81610ae1565b82525050565b6000602082019050610b176000830184610af3565b92915050565b600060208284031215610b3357610b32610a41565b5b6000610b4184828501610a6c565b91505092915050565b600081519050919050565b600082825260208201905092915050565b6000819050602082019050919050565b610b7f81610ae1565b82525050565b6000610b918383610b76565b60208301905092915050565b6000602082019050919050565b6000610bb582610b4a565b610bbf8185610b55565b9350610bca83610b66565b8060005b83811015610bfb578151610be28882610b85565b9750610bed83610b9d565b925050600181019050610bce565b5085935050505092915050565b60006020820190508181036000830152610c228184610baa565b905092915050565b600080fd5b600080fd5b6000601f19601f8301169050919050565b7f4e487b7100000000000000000000000000000000000000000000000000000000600052604160045260246000fd5b610c7d82610c34565b810181811067ffffffffffffffff82111715610c9c57610c9b610c45565b5b80604052505050565b6000610caf610a37565b9050610cbb8282610c74565b919050565b600067ffffffffffffffff821115610cdb57610cda610c45565b5b610ce482610c34565b9050602081019050919050565b82818337600083830152505050565b6000610d13610d0e84610cc0565b610ca5565b905082815260208101848484011115610d2f57610d2e610c2f565b5b610d3a848285610cf1565b509392505050565b600082601f830112610d5757610d56610c2a565b5b8135610d67848260208601610d00565b91505092915050565b60008060408385031215610d8757610d86610a41565b5b600083013567ffffffffffffffff811115610da557610da4610a46565b5b610db185828601610d42565b925050602083013567ffffffffffffffff811115610dd257610dd1610a46565b5b610dde85828601610d42565b9150509250929050565b610df181610ae1565b8114610dfc57600080fd5b50565b600081359050610e0e81610de8565b92915050565b60008060408385031215610e2b57610e2a610a41565b5b6000610e3985828601610a6c565b9250506020610e4a85828601610dff565b9150509250929050565b60008115159050919050565b610e6981610e54565b82525050565b6000602082019050610e846000830184610e60565b92915050565b600081519050919050565b600082825260208201905092915050565b60005b83811015610ec4578082015181840152602081019050610ea9565b60008484015250505050565b6000610edb82610e8a565b610ee58185610e95565b9350610ef5818560208601610ea6565b610efe81610c34565b840191505092915050565b60006020820190508181036000830152610f238184610ed0565b905092915050565b6000606082019050610f406000830186610af3565b8181036020830152610f528185610ed0565b90508181036040830152610f668184610ed0565b9050949350505050565b7f496e76616c69642066696c652049440000000000000000000000000000000000600082015250565b6000610fa6600f83610e95565b9150610fb182610f70565b602082019050919050565b60006020820190508181036000830152610fd581610f99565b9050919050565b7f496e73756666696369656e74207061796d656e74000000000000000000000000600082015250565b6000611012601483610e95565b915061101d82610fdc565b602082019050919050565b6000602082019050818103600083015261104181611005565b9050919050565b7f416c726561647920707572636861736564000000000000000000000000000000600082015250565b600061107e601183610e95565b915061108982611048565b602082019050919050565b600060208201905081810360008301526110ad81611071565b9050919050565b7f4e487b7100000000000000000000000000000000000000000000000000000000600052603260045260246000fd5b6110ec81610a4b565b82525050565b600060408201905061110760008301856110e3565b6111146020830184610af3565b9392505050565b7f4e487b7100000000000000000000000000000000000000000000000000000000600052602260045260246000fd5b6000600282049050600182168061116257607f821691505b6020821081036111755761117461111b565b5b50919050565b60008190508160005260206000209050919050565b60006020601f8301049050919050565b600082821b905092915050565b6000600883026111dd7fffffffffffffffffffffffffffffffffffffffffffffffffffffffffffffffff826111a0565b6111e786836111a0565b95508019841693508086168417925050509392505050565b6000819050919050565b600061122461121f61121a84610a4b565b6111ff565b610a4b565b9050919050565b6000819050919050565b61123e83611209565b61125261124a8261122b565b8484546111ad565b825550505050565b600090565b61126761125a565b611272818484611235565b505050565b5b818110156112965761128b60008261125f565b600181019050611278565b5050565b601f8211156112db576112ac8161117b565b6112b584611190565b810160208510156112c4578190505b6112d86112d085611190565b830182611277565b50505b505050565b600082821c905092915050565b60006112fe600019846008026112e0565b1980831691505092915050565b600061131783836112ed565b9150826002028217905092915050565b61133082610e8a565b67ffffffffffffffff81111561134957611348610c45565b5b611353825461114a565b61135e82828561129a565b600060209050601f831160018114611391576000841561137f578287015190505b611389858261130b565b8655506113f1565b601f19841661139f8661117b565b60005b828110156113c7578489015182556001820191506020850194506020810190506113a2565b868310156113e457848901516113e0601f8916826112ed565b8355505b6001600288020188555050505b505050505050565b7f4e487b7100000000000000000000000000000000000000000000000000000000600052601160045260246000fd5b600061143382610a4b565b915061143e83610a4b565b9250828203905081811115611456576114556113f9565b5b92915050565b7f4163636573732064656e69656400000000000000000000000000000000000000600082015250565b6000611492600d83610e95565b915061149d8261145c565b602082019050919050565b600060208201905081810360008301526114c181611485565b905091905056fea26469706673582212200c6028e01787d49c23d48faf5209e2e7f102efbefb11747ed157e6362e471cf864736f6c634300081c0033",
  "linkReferences": {},
  "deployedLinkReferences": {}
}