{
  "_format": "hh-sol-artifact-1",
  "contractName": "FileVersionControl",
  "sourceName": "contracts/FileVersionControl.sol",
  "abi": [
    {
      "anonymous": false,
      "inputs": [
        {
          "indexed": false,
          "internalType": "string",
          "name": "fileName",
          "type": "string"
        },
        {
          "indexed": false,
          "internalType": "string",
          "name": "cid",
          "type": "string"
        },
        {
          "indexed": false,
          "internalType": "string",
          "name": "changelog",
          "type": "string"
        },
        {
          "indexed": false,
          "internalType": "uint256",
          "name": "timestamp",
          "type": "uint256"
        }
      ],
      "name": "NewVersionUploaded",
      "type": "event"
    },
    {
      "inputs": [
        {
          "internalType": "string",
          "name": "_name",
          "type": "string"
        },
        {
          "internalType": "string",
          "name": "_cid",
          "type": "string"
        },
        {
          "internalType": "string",
          "name": "_changelog",
          "type": "string"
        }
      ],
      "name": "addVersion",
      "outputs": [],
      "stateMutability": "nonpayable",
      "type": "function"
    },
    {
      "inputs": [
        {
          "internalType": "string",
          "name": "_name",
          "type": "string"
        }
      ],
      "name": "getFileOwner",
      "outputs": [
        {
          "internalType": "address",
          "name": "",
          "type": "address"
        }
      ],
      "stateMutability": "view",
      "type": "function"
    },
    {
      "inputs": [
        {
          "internalType": "string",
          "name": "_name",
          "type": "string"
        }
      ],
      "name": "getVersions",
      "outputs": [
        {
          "components": [
            {
              "internalType": "string",
              "name": "cid",
              "type": "string"
            },
            {
              "internalType": "uint256",
              "name": "timestamp",
              "type": "uint256"
            },
            {
              "internalType": "string",
              "name": "changelog",
              "type": "string"
            }
          ],
          "internalType": "struct FileVersionControl.FileVersion[]",
          "name": "",
          "type": "tuple[]"
        }
      ],
      "stateMutability": "view",
      "type": "function"
    }
  ],
  "bytecode": "0x6080604052348015600f57600080fd5b50610dc78061001f6000396000f3fe608060405234801561001057600080fd5b50600436106100415760003560e01c8063045fb4801461004657806338fa8f5814610076578063762d8bd8146100a6575b600080fd5b610060600480360381019061005b9190610622565b6100c2565b60405161006d919061081c565b60405180910390f35b610090600480360381019061008b9190610622565b61026d565b60405161009d919061087f565b60405180910390f35b6100c060048036038101906100bb919061089a565b6102b5565b005b60606000826040516100d4919061097d565b9081526020016040518091039020805480602002602001604051908101604052809291908181526020016000905b828210156102625783829060005260206000209060030201604051806060016040529081600082018054610135906109c3565b80601f0160208091040260200160405190810160405280929190818152602001828054610161906109c3565b80156101ae5780601f10610183576101008083540402835291602001916101ae565b820191906000526020600020905b81548152906001019060200180831161019157829003601f168201915b50505050508152602001600182015481526020016002820180546101d1906109c3565b80601f01602080910402602001604051908101604052809291908181526020018280546101fd906109c3565b801561024a5780601f1061021f5761010080835404028352916020019161024a565b820191906000526020600020905b81548152906001019060200180831161022d57829003601f168201915b50505050508152505081526020019060010190610102565b505050509050919050565b600060018260405161027f919061097d565b908152602001604051809103902060009054906101000a900473ffffffffffffffffffffffffffffffffffffffff169050919050565b600080846040516102c6919061097d565b9081526020016040518091039020805490500361033f57336001846040516102ee919061097d565b908152602001604051809103902060006101000a81548173ffffffffffffffffffffffffffffffffffffffff021916908373ffffffffffffffffffffffffffffffffffffffff1602179055506103ec565b3373ffffffffffffffffffffffffffffffffffffffff16600184604051610366919061097d565b908152602001604051809103902060009054906101000a900473ffffffffffffffffffffffffffffffffffffffff1673ffffffffffffffffffffffffffffffffffffffff16146103eb576040517f08c379a00000000000000000000000000000000000000000000000000000000081526004016103e290610a51565b60405180910390fd5b5b6000836040516103fc919061097d565b9081526020016040518091039020604051806060016040528084815260200142815260200183815250908060018154018082558091505060019003906000526020600020906003020160009091909190915060008201518160000190816104639190610c1d565b506020820151816001015560408201518160020190816104839190610c1d565b5050507f3bd6033d354bd14f78c5d1d7d03d6ca13c34932438723154e8fb7f16560d8293838383426040516104bb9493929190610d37565b60405180910390a1505050565b6000604051905090565b600080fd5b600080fd5b600080fd5b600080fd5b6000601f19601f8301169050919050565b7f4e487b7100000000000000000000000000000000000000000000000000000000600052604160045260246000fd5b61052f826104e6565b810181811067ffffffffffffffff8211171561054e5761054d6104f7565b5b80604052505050565b60006105616104c8565b905061056d8282610526565b919050565b600067ffffffffffffffff82111561058d5761058c6104f7565b5b610596826104e6565b9050602081019050919050565b82818337600083830152505050565b60006105c56105c084610572565b610557565b9050828152602081018484840111156105e1576105e06104e1565b5b6105ec8482856105a3565b509392505050565b600082601f830112610609576106086104dc565b5b81356106198482602086016105b2565b91505092915050565b600060208284031215610638576106376104d2565b5b600082013567ffffffffffffffff811115610656576106556104d7565b5b610662848285016105f4565b91505092915050565b600081519050919050565b600082825260208201905092915050565b6000819050602082019050919050565b600081519050919050565b600082825260208201905092915050565b60005b838110156106d15780820151818401526020810190506106b6565b60008484015250505050565b60006106e882610697565b6106f281856106a2565b93506107028185602086016106b3565b61070b816104e6565b840191505092915050565b6000819050919050565b61072981610716565b82525050565b6000606083016000830151848203600086015261074c82826106dd565b91505060208301516107616020860182610720565b506040830151848203604086015261077982826106dd565b9150508091505092915050565b6000610792838361072f565b905092915050565b6000602082019050919050565b60006107b28261066b565b6107bc8185610676565b9350836020820285016107ce85610687565b8060005b8581101561080a57848403895281516107eb8582610786565b94506107f68361079a565b925060208a019950506001810190506107d2565b50829750879550505050505092915050565b6000602082019050818103600083015261083681846107a7565b905092915050565b600073ffffffffffffffffffffffffffffffffffffffff82169050919050565b60006108698261083e565b9050919050565b6108798161085e565b82525050565b60006020820190506108946000830184610870565b92915050565b6000806000606084860312156108b3576108b26104d2565b5b600084013567ffffffffffffffff8111156108d1576108d06104d7565b5b6108dd868287016105f4565b935050602084013567ffffffffffffffff8111156108fe576108fd6104d7565b5b61090a868287016105f4565b925050604084013567ffffffffffffffff81111561092b5761092a6104d7565b5b610937868287016105f4565b9150509250925092565b600081905092915050565b600061095782610697565b6109618185610941565b93506109718185602086016106b3565b80840191505092915050565b6000610989828461094c565b915081905092915050565b7f4e487b7100000000000000000000000000000000000000000000000000000000600052602260045260246000fd5b600060028204905060018216806109db57607f821691505b6020821081036109ee576109ed610994565b5b50919050565b600082825260208201905092915050565b7f4e6f74207468652066696c65206f776e65720000000000000000000000000000600082015250565b6000610a3b6012836109f4565b9150610a4682610a05565b602082019050919050565b60006020820190508181036000830152610a6a81610a2e565b9050919050565b60008190508160005260206000209050919050565b60006020601f8301049050919050565b600082821b905092915050565b600060088302610ad37fffffffffffffffffffffffffffffffffffffffffffffffffffffffffffffffff82610a96565b610add8683610a96565b95508019841693508086168417925050509392505050565b6000819050919050565b6000610b1a610b15610b1084610716565b610af5565b610716565b9050919050565b6000819050919050565b610b3483610aff565b610b48610b4082610b21565b848454610aa3565b825550505050565b600090565b610b5d610b50565b610b68818484610b2b565b505050565b5b81811015610b8c57610b81600082610b55565b600181019050610b6e565b5050565b601f821115610bd157610ba281610a71565b610bab84610a86565b81016020851015610bba578190505b610bce610bc685610a86565b830182610b6d565b50505b505050565b600082821c905092915050565b6000610bf460001984600802610bd6565b1980831691505092915050565b6000610c0d8383610be3565b9150826002028217905092915050565b610c2682610697565b67ffffffffffffffff811115610c3f57610c3e6104f7565b5b610c4982546109c3565b610c54828285610b90565b600060209050601f831160018114610c875760008415610c75578287015190505b610c7f8582610c01565b865550610ce7565b601f198416610c9586610a71565b60005b82811015610cbd57848901518255600182019150602085019450602081019050610c98565b86831015610cda5784890151610cd6601f891682610be3565b8355505b6001600288020188555050505b505050505050565b6000610cfa82610697565b610d0481856109f4565b9350610d148185602086016106b3565b610d1d816104e6565b840191505092915050565b610d3181610716565b82525050565b60006080820190508181036000830152610d518187610cef565b90508181036020830152610d658186610cef565b90508181036040830152610d798185610cef565b9050610d886060830184610d28565b9594505050505056fea2646970667358221220d35ad58de442d3bf659a246fd85fc5aa855e5091e3f08550823c4da28bd04da264736f6c634300081c0033",
  "linkReferences": {},
  "deployedLinkReferences": {}
}